{
  "contractName": "ExampleSwapToPrice",
  "abi": [
    {
      "inputs": [
        {
          "internalType": "address",
          "name": "factory_",
          "type": "address"
        },
        {
          "internalType": "contract IUniswapV2Router02",
          "name": "router_",
          "type": "address"
        }
      ],
      "stateMutability": "nonpayable",
      "type": "constructor"
    },
    {
      "inputs": [
        {
          "components": [
            {
              "internalType": "address",
              "name": "tokenA",
              "type": "address"
            },
            {
              "internalType": "address",
              "name": "tokenB",
              "type": "address"
            }
          ],
          "internalType": "struct ExampleSwapToPrice.Tokens",
          "name": "tokens",
          "type": "tuple"
        },
        {
          "components": [
            {
              "internalType": "uint256",
              "name": "truepricetokenA",
              "type": "uint256"
            },
            {
              "internalType": "uint256",
              "name": "truepricetokenB",
              "type": "uint256"
            },
            {
              "internalType": "uint256",
              "name": "truepricetokenC",
              "type": "uint256"
            }
          ],
          "internalType": "struct ExampleSwapToPrice.truepriceTokens",
          "name": "truepricetokens",
          "type": "tuple"
        },
        {
          "internalType": "uint256",
          "name": "maxSpendTokenA",
          "type": "uint256"
        },
        {
          "internalType": "uint256",
          "name": "maxSpendTokenB",
          "type": "uint256"
        },
        {
          "internalType": "address",
          "name": "to",
          "type": "address"
        },
        {
          "internalType": "uint256",
          "name": "deadline",
          "type": "uint256"
        }
      ],
      "name": "swapToPrice",
      "outputs": [],
      "stateMutability": "nonpayable",
      "type": "function"
    },
    {
      "inputs": [
        {
          "internalType": "address",
          "name": "_sender",
          "type": "address"
        },
        {
          "internalType": "uint256",
          "name": "_amount0",
          "type": "uint256"
        },
        {
          "internalType": "uint256",
          "name": "_amount1",
          "type": "uint256"
        },
        {
          "internalType": "bytes",
          "name": "_data",
          "type": "bytes"
        }
      ],
      "name": "uniswapV2Call",
      "outputs": [],
      "stateMutability": "nonpayable",
      "type": "function"
    }
  ],
  "bytecode": "0x60c06040523480156200001157600080fd5b50604051620025ca380380620025ca8339818101604052810190620000379190620000db565b8173ffffffffffffffffffffffffffffffffffffffff1660a08173ffffffffffffffffffffffffffffffffffffffff1660601b815250508073ffffffffffffffffffffffffffffffffffffffff1660808173ffffffffffffffffffffffffffffffffffffffff1660601b81525050505062000198565b600081519050620000be8162000164565b92915050565b600081519050620000d5816200017e565b92915050565b60008060408385031215620000ef57600080fd5b6000620000ff85828601620000ad565b92505060206200011285828601620000c4565b9150509250929050565b6000620001298262000144565b9050919050565b60006200013d826200011c565b9050919050565b600073ffffffffffffffffffffffffffffffffffffffff82169050919050565b6200016f816200011c565b81146200017b57600080fd5b50565b620001898162000130565b81146200019557600080fd5b50565b60805160601c60a05160601c6123ef620001db60003980610a2e52508061020f5280610333528061065a528061077e5280610b225280610c2552506123ef6000f3fe608060405234801561001057600080fd5b50600436106100365760003560e01c806310d1e85c1461003b578063d27622d714610057575b600080fd5b610055600480360381019061005091906117f4565b610073565b005b610071600480360381019061006c91906118de565b61097a565b005b6060600267ffffffffffffffff8111801561008d57600080fd5b506040519080825280602002602001820160405280156100bc5781602001602082028036833780820191505090505b50905060008084848101906100d191906119b8565b91509150600087141561052957600086905060003373ffffffffffffffffffffffffffffffffffffffff16630dfe16816040518163ffffffff1660e01b815260040160206040518083038186803b15801561012b57600080fd5b505afa15801561013f573d6000803e3d6000fd5b505050506040513d601f19601f8201168201806040525081019061016391906117cb565b905060003373ffffffffffffffffffffffffffffffffffffffff1663d21220a76040518163ffffffff1660e01b815260040160206040518083038186803b1580156101ad57600080fd5b505afa1580156101c1573d6000803e3d6000fd5b505050506040513d601f19601f820116820180604052508101906101e591906117cb565b9050600081905060008390508173ffffffffffffffffffffffffffffffffffffffff1663095ea7b37f0000000000000000000000000000000000000000000000000000000000000000876040518363ffffffff1660e01b815260040161024c929190611f91565b602060405180830381600087803b15801561026657600080fd5b505af115801561027a573d6000803e3d6000fd5b505050506040513d601f19601f8201168201806040525081019061029e91906118b5565b5082886000815181106102ad57fe5b602002602001019073ffffffffffffffffffffffffffffffffffffffff16908173ffffffffffffffffffffffffffffffffffffffff168152505083886001815181106102f557fe5b602002602001019073ffffffffffffffffffffffffffffffffffffffff16908173ffffffffffffffffffffffffffffffffffffffff168152505060007f000000000000000000000000000000000000000000000000000000000000000073ffffffffffffffffffffffffffffffffffffffff166338ed17398760008c308c6040518663ffffffff1660e01b81526004016103939594939291906120fa565b600060405180830381600087803b1580156103ad57600080fd5b505af11580156103c1573d6000803e3d6000fd5b505050506040513d6000823e3d601f19601f820116820180604052508101906103ea9190611874565b6001815181106103f657fe5b602002602001015190508173ffffffffffffffffffffffffffffffffffffffff1663a9059cbb338a6040518363ffffffff1660e01b815260040161043b929190611f31565b602060405180830381600087803b15801561045557600080fd5b505af1158015610469573d6000803e3d6000fd5b505050506040513d601f19601f8201168201806040525081019061048d91906118b5565b508173ffffffffffffffffffffffffffffffffffffffff1663a9059cbb8f8a84036040518363ffffffff1660e01b81526004016104cb929190611f91565b602060405180830381600087803b1580156104e557600080fd5b505af11580156104f9573d6000803e3d6000fd5b505050506040513d601f19601f8201168201806040525081019061051d91906118b5565b50505050505050610970565b600087905060003373ffffffffffffffffffffffffffffffffffffffff16630dfe16816040518163ffffffff1660e01b815260040160206040518083038186803b15801561057657600080fd5b505afa15801561058a573d6000803e3d6000fd5b505050506040513d601f19601f820116820180604052508101906105ae91906117cb565b905060003373ffffffffffffffffffffffffffffffffffffffff1663d21220a76040518163ffffffff1660e01b815260040160206040518083038186803b1580156105f857600080fd5b505afa15801561060c573d6000803e3d6000fd5b505050506040513d601f19601f8201168201806040525081019061063091906117cb565b9050600082905060008290508173ffffffffffffffffffffffffffffffffffffffff1663095ea7b37f0000000000000000000000000000000000000000000000000000000000000000876040518363ffffffff1660e01b8152600401610697929190611f91565b602060405180830381600087803b1580156106b157600080fd5b505af11580156106c5573d6000803e3d6000fd5b505050506040513d601f19601f820116820180604052508101906106e991906118b5565b5083886000815181106106f857fe5b602002602001019073ffffffffffffffffffffffffffffffffffffffff16908173ffffffffffffffffffffffffffffffffffffffff1681525050828860018151811061074057fe5b602002602001019073ffffffffffffffffffffffffffffffffffffffff16908173ffffffffffffffffffffffffffffffffffffffff168152505060007f000000000000000000000000000000000000000000000000000000000000000073ffffffffffffffffffffffffffffffffffffffff166338ed17398760008c308c6040518663ffffffff1660e01b81526004016107de9594939291906120fa565b600060405180830381600087803b1580156107f857600080fd5b505af115801561080c573d6000803e3d6000fd5b505050506040513d6000823e3d601f19601f820116820180604052508101906108359190611874565b60018151811061084157fe5b602002602001015190508173ffffffffffffffffffffffffffffffffffffffff1663a9059cbb338a6040518363ffffffff1660e01b8152600401610886929190611f31565b602060405180830381600087803b1580156108a057600080fd5b505af11580156108b4573d6000803e3d6000fd5b505050506040513d601f19601f820116820180604052508101906108d891906118b5565b508173ffffffffffffffffffffffffffffffffffffffff1663a9059cbb8f8a84036040518363ffffffff1660e01b8152600401610916929190611f91565b602060405180830381600087803b15801561093057600080fd5b505af1158015610944573d6000803e3d6000fd5b505050506040513d601f19601f8201168201806040525081019061096891906118b5565b505050505050505b5050505050505050565b600085600001511415801561099457506000856020015114155b6109d3576040517f08c379a00000000000000000000000000000000000000000000000000000000081526004016109ca9061201a565b60405180910390fd5b6000841415806109e4575060008314155b610a23576040517f08c379a0000000000000000000000000000000000000000000000000000000008152600401610a1a90611fda565b60405180910390fd5b600080600080610a5c7f00000000000000000000000000000000000000000000000000000000000000008b600001518c60200151610ceb565b91509150610a7489600001518a602001518484610dfd565b8094508195505050505060008111610ac1576040517f08c379a0000000000000000000000000000000000000000000000000000000008152600401610ab8906120da565b60405180910390fd5b600082610ace5785610ad0565b865b905080821115610ade578091505b600083610aef578960200151610af5565b89600001515b9050600084610b08578a60000151610b0e565b8a602001515b9050610b1c82333087610efd565b610b47827f000000000000000000000000000000000000000000000000000000000000000086611037565b6060600267ffffffffffffffff81118015610b6157600080fd5b50604051908082528060200260200182016040528015610b905781602001602082028036833780820191505090505b5090508281600081518110610ba157fe5b602002602001019073ffffffffffffffffffffffffffffffffffffffff16908173ffffffffffffffffffffffffffffffffffffffff16815250508181600181518110610be957fe5b602002602001019073ffffffffffffffffffffffffffffffffffffffff16908173ffffffffffffffffffffffffffffffffffffffff16815250507f000000000000000000000000000000000000000000000000000000000000000073ffffffffffffffffffffffffffffffffffffffff166338ed1739866000848c8c6040518663ffffffff1660e01b8152600401610c859594939291906120fa565b600060405180830381600087803b158015610c9f57600080fd5b505af1158015610cb3573d6000803e3d6000fd5b505050506040513d6000823e3d601f19601f82011682018060405250810190610cdc9190611874565b50505050505050505050505050565b6000806000610cfa858561116e565b509050600080610d0b88888861129c565b73ffffffffffffffffffffffffffffffffffffffff16630902f1ac6040518163ffffffff1660e01b815260040160606040518083038186803b158015610d5057600080fd5b505afa158015610d64573d6000803e3d6000fd5b505050506040513d601f19601f82011682018060405250810190610d889190611969565b506dffffffffffffffffffffffffffff1691506dffffffffffffffffffffffffffff1691508273ffffffffffffffffffffffffffffffffffffffff168773ffffffffffffffffffffffffffffffffffffffff1614610de7578082610dea565b81815b8095508196505050505050935093915050565b60008085610e0c85878661130e565b1091506000610e2484866113bb90919063ffffffff16565b90506000610e7b610e76610e436103e8856113bb90919063ffffffff16565b86610e4e5789610e50565b8a5b610e716103e589610e61578d610e63565b8c5b6113bb90919063ffffffff16565b61130e565b61141d565b905060006103e585610ea157610e9c6103e8886113bb90919063ffffffff16565b610eb7565b610eb66103e8896113bb90919063ffffffff16565b5b81610ebe57fe5b04905080821015610edb5760008080905094509450505050610ef4565b610eee818361147f90919063ffffffff16565b93505050505b94509492505050565b600060608573ffffffffffffffffffffffffffffffffffffffff166323b872dd868686604051602401610f3293929190611f5a565b6040516020818303038152906040529060e01b6020820180517bffffffffffffffffffffffffffffffffffffffffffffffffffffffff8381831617835250505050604051610f809190611ed8565b6000604051808303816000865af19150503d8060008114610fbd576040519150601f19603f3d011682016040523d82523d6000602084013e610fc2565b606091505b5091509150818015610ff05750600081511480610fef575080806020019051810190610fee91906118b5565b5b5b61102f576040517f08c379a00000000000000000000000000000000000000000000000000000000081526004016110269061203a565b60405180910390fd5b505050505050565b600060608473ffffffffffffffffffffffffffffffffffffffff1663095ea7b3858560405160240161106a929190611f91565b6040516020818303038152906040529060e01b6020820180517bffffffffffffffffffffffffffffffffffffffffffffffffffffffff83818316178352505050506040516110b89190611ed8565b6000604051808303816000865af19150503d80600081146110f5576040519150601f19603f3d011682016040523d82523d6000602084013e6110fa565b606091505b5091509150818015611128575060008151148061112757508080602001905181019061112691906118b5565b5b5b611167576040517f08c379a000000000000000000000000000000000000000000000000000000000815260040161115e9061209a565b60405180910390fd5b5050505050565b6000808273ffffffffffffffffffffffffffffffffffffffff168473ffffffffffffffffffffffffffffffffffffffff1614156111e0576040517f08c379a00000000000000000000000000000000000000000000000000000000081526004016111d79061205a565b60405180910390fd5b8273ffffffffffffffffffffffffffffffffffffffff168473ffffffffffffffffffffffffffffffffffffffff161061121a57828461121d565b83835b8092508193505050600073ffffffffffffffffffffffffffffffffffffffff168273ffffffffffffffffffffffffffffffffffffffff161415611295576040517f08c379a000000000000000000000000000000000000000000000000000000000815260040161128c906120ba565b60405180910390fd5b9250929050565b60008060006112ab858561116e565b915091508582826040516020016112c3929190611eac565b604051602081830303815290604052805190602001206040516020016112ea929190611eef565b6040516020818303038152906040528051906020012060001c925050509392505050565b600080600061131d86866114cf565b915091506000848061132b57fe5b86880990508281111561133f576001820391505b808303925060008214156113615784838161135657fe5b0493505050506113b4565b8482106113a3576040517f08c379a000000000000000000000000000000000000000000000000000000000815260040161139a9061207a565b60405180910390fd5b6113ae838387611522565b93505050505b9392505050565b6000808214806113d857508282838502925082816113d557fe5b04145b611417576040517f08c379a000000000000000000000000000000000000000000000000000000000815260040161140e90611ffa565b60405180910390fd5b92915050565b6000600382111561146c57819050600060016002848161143957fe5b040190505b818110156114665780915060028182858161145557fe5b04018161145e57fe5b04905061143e565b5061147a565b6000821461147957600190505b5b919050565b60008282840391508111156114c9576040517f08c379a00000000000000000000000000000000000000000000000000000000081526004016114c090611fba565b60405180910390fd5b92915050565b60008060007fffffffffffffffffffffffffffffffffffffffffffffffffffffffffffffffff806114fc57fe5b8486099050838502925082810391508281101561151a576001820391505b509250929050565b600080826000038316905080838161153657fe5b04925080858161154257fe5b049450600181826000038161155357fe5b04018402850194506000600190508084026002038102905080840260020381029050808402600203810290508084026002038102905080840260020381029050808402600203810290508084026002038102905080840260020381029050808602925050509392505050565b6000813590506115ce81612346565b92915050565b6000815190506115e381612346565b92915050565b600082601f8301126115fa57600080fd5b815161160d61160882612181565b612154565b9150818183526020840193506020810190508385602084028201111561163257600080fd5b60005b83811015611662578161164888826117a1565b845260208401935060208301925050600181019050611635565b5050505092915050565b60008151905061167b8161235d565b92915050565b60008083601f84011261169357600080fd5b8235905067ffffffffffffffff8111156116ac57600080fd5b6020830191508360018202830111156116c457600080fd5b9250929050565b6000604082840312156116dd57600080fd5b6116e76040612154565b905060006116f7848285016115bf565b600083015250602061170b848285016115bf565b60208301525092915050565b60006060828403121561172957600080fd5b6117336060612154565b905060006117438482850161178c565b60008301525060206117578482850161178c565b602083015250604061176b8482850161178c565b60408301525092915050565b60008151905061178681612374565b92915050565b60008135905061179b8161238b565b92915050565b6000815190506117b08161238b565b92915050565b6000815190506117c5816123a2565b92915050565b6000602082840312156117dd57600080fd5b60006117eb848285016115d4565b91505092915050565b60008060008060006080868803121561180c57600080fd5b600061181a888289016115bf565b955050602061182b8882890161178c565b945050604061183c8882890161178c565b935050606086013567ffffffffffffffff81111561185957600080fd5b61186588828901611681565b92509250509295509295909350565b60006020828403121561188657600080fd5b600082015167ffffffffffffffff8111156118a057600080fd5b6118ac848285016115e9565b91505092915050565b6000602082840312156118c757600080fd5b60006118d58482850161166c565b91505092915050565b60008060008060008061012087890312156118f857600080fd5b600061190689828a016116cb565b965050604061191789828a01611717565b95505060a061192889828a0161178c565b94505060c061193989828a0161178c565b93505060e061194a89828a016115bf565b92505061010061195c89828a0161178c565b9150509295509295509295565b60008060006060848603121561197e57600080fd5b600061198c86828701611777565b935050602061199d86828701611777565b92505060406119ae868287016117b6565b9150509250925092565b600080604083850312156119cb57600080fd5b60006119d98582860161178c565b92505060206119ea8582860161178c565b9150509250929050565b6000611a008383611a1b565b60208301905092915050565b611a1581612290565b82525050565b611a2481612214565b82525050565b611a3381612214565b82525050565b611a4a611a4582612214565b61230b565b82525050565b6000611a5b826121b9565b611a6581856121dc565b9350611a70836121a9565b8060005b83811015611aa1578151611a8888826119f4565b9750611a93836121cf565b925050600181019050611a74565b5085935050505092915050565b611abf611aba82612232565b61231d565b82525050565b6000611ad0826121c4565b611ada81856121ed565b9350611aea8185602086016122d8565b80840191505092915050565b611aff816122a2565b82525050565b6000611b126015836121f8565b91507f64732d6d6174682d7375622d756e646572666c6f7700000000000000000000006000830152602082019050919050565b6000611b52601e836121f8565b91507f4578616d706c6553776170546f50726963653a205a45524f5f5350454e4400006000830152602082019050919050565b6000611b926014836121f8565b91507f64732d6d6174682d6d756c2d6f766572666c6f770000000000000000000000006000830152602082019050919050565b6000611bd2601e836121f8565b91507f4578616d706c6553776170546f50726963653a205a45524f5f505249434500006000830152602082019050919050565b6000611c126031836121f8565b91507f5472616e7366657248656c7065723a3a7472616e7366657246726f6d3a20747260008301527f616e7366657246726f6d206661696c65640000000000000000000000000000006020830152604082019050919050565b6000611c786025836121f8565b91507f556e697377617056324c6962726172793a204944454e544943414c5f4144445260008301527f45535345530000000000000000000000000000000000000000000000000000006020830152604082019050919050565b6000611cde602083612209565b91507f96e8ac4277198ff8b6f785478aa9a39f403cb768dd02cbee326c3e7da348845f6000830152602082019050919050565b6000611d1e600183612209565b91507fff000000000000000000000000000000000000000000000000000000000000006000830152600182019050919050565b6000611d5e601a836121f8565b91507f46756c6c4d6174683a2046554c4c4449565f4f564552464c4f570000000000006000830152602082019050919050565b6000611d9e602b836121f8565b91507f5472616e7366657248656c7065723a3a73616665417070726f76653a2061707060008301527f726f7665206661696c65640000000000000000000000000000000000000000006020830152604082019050919050565b6000611e04601e836121f8565b91507f556e697377617056324c6962726172793a205a45524f5f4144445245535300006000830152602082019050919050565b6000611e446022836121f8565b91507f4578616d706c6553776170546f50726963653a205a45524f5f414d4f554e545f60008301527f494e0000000000000000000000000000000000000000000000000000000000006020830152604082019050919050565b611ea681612276565b82525050565b6000611eb88285611a39565b601482019150611ec88284611a39565b6014820191508190509392505050565b6000611ee48284611ac5565b915081905092915050565b6000611efa82611d11565b9150611f068285611a39565b601482019150611f168284611aae565b602082019150611f2582611cd1565b91508190509392505050565b6000604082019050611f466000830185611a0c565b611f536020830184611e9d565b9392505050565b6000606082019050611f6f6000830186611a2a565b611f7c6020830185611a2a565b611f896040830184611e9d565b949350505050565b6000604082019050611fa66000830185611a2a565b611fb36020830184611e9d565b9392505050565b60006020820190508181036000830152611fd381611b05565b9050919050565b60006020820190508181036000830152611ff381611b45565b9050919050565b6000602082019050818103600083015261201381611b85565b9050919050565b6000602082019050818103600083015261203381611bc5565b9050919050565b6000602082019050818103600083015261205381611c05565b9050919050565b6000602082019050818103600083015261207381611c6b565b9050919050565b6000602082019050818103600083015261209381611d51565b9050919050565b600060208201905081810360008301526120b381611d91565b9050919050565b600060208201905081810360008301526120d381611df7565b9050919050565b600060208201905081810360008301526120f381611e37565b9050919050565b600060a08201905061210f6000830188611e9d565b61211c6020830187611af6565b818103604083015261212e8186611a50565b905061213d6060830185611a2a565b61214a6080830184611e9d565b9695505050505050565b6000604051905081810181811067ffffffffffffffff8211171561217757600080fd5b8060405250919050565b600067ffffffffffffffff82111561219857600080fd5b602082029050602081019050919050565b6000819050602082019050919050565b600081519050919050565b600081519050919050565b6000602082019050919050565b600082825260208201905092915050565b600081905092915050565b600082825260208201905092915050565b600081905092915050565b600061221f82612256565b9050919050565b60008115159050919050565b6000819050919050565b60006dffffffffffffffffffffffffffff82169050919050565b600073ffffffffffffffffffffffffffffffffffffffff82169050919050565b6000819050919050565b600063ffffffff82169050919050565b600061229b826122b4565b9050919050565b60006122ad82612276565b9050919050565b60006122bf826122c6565b9050919050565b60006122d182612256565b9050919050565b60005b838110156122f65780820151818401526020810190506122db565b83811115612305576000848401525b50505050565b600061231682612327565b9050919050565b6000819050919050565b600061233282612339565b9050919050565b60008160601b9050919050565b61234f81612214565b811461235a57600080fd5b50565b61236681612226565b811461237157600080fd5b50565b61237d8161223c565b811461238857600080fd5b50565b61239481612276565b811461239f57600080fd5b50565b6123ab81612280565b81146123b657600080fd5b5056fea264697066735822122054d34b3eea393fbb9729ec544690523e99006c4e8090489cf7674bdb4673142d64736f6c63430006060033",
  "immutableReferences": {
    "2134": [
      {
        "length": 32,
        "start": 527
      },
      {
        "length": 32,
        "start": 819
      },
      {
        "length": 32,
        "start": 1626
      },
      {
        "length": 32,
        "start": 1918
      },
      {
        "length": 32,
        "start": 2850
      },
      {
        "length": 32,
        "start": 3109
      }
    ],
    "2136": [
      {
        "length": 32,
        "start": 2606
      }
    ]
  },
  "source": "// SPDX-License-Identifier: AGPL-3.0-or-later\npragma solidity >=0.6.6;\npragma experimental ABIEncoderV2;\n\nimport './TransferHelperTest.sol';\nimport './IUniswapV2Router02.sol';\nimport './IERC20.sol';\nimport './UniswapV2LiquidityMathLibrary.sol';\nimport './UniswapV2Library.sol';\n\n\ncontract ExampleSwapToPrice {\n    using SafeMath for uint256;\n\n    IUniswapV2Router02 immutable router;\n    address immutable factory;\n\n    constructor(address factory_, IUniswapV2Router02 router_) public {\n        factory = factory_;\n        router = router_;\n    }\n\n    // swaps an amount of either token such that the trade is profit-maximizing, given an external true price\n    // true price is expressed in the ratio of token A to token B\n    // caller must approve this contract to spend whichever token is intended to be swapped\n    struct Tokens{\n            address tokenA;\n            address tokenB;\n        }\n        struct truepriceTokens{\n            uint256 truepricetokenA;\n            uint256 truepricetokenB;\n            uint256 truepricetokenC;\n        }\n    function swapToPrice(\n        Tokens memory tokens,\n        truepriceTokens memory truepricetokens,\n        uint256 maxSpendTokenA,\n        uint256 maxSpendTokenB,\n        address to,\n        uint256 deadline\n    ) public {\n        // true price is expressed as a ratio, so both values must be non-zero\n        require(truepricetokens.truepricetokenA != 0 && truepricetokens.truepricetokenB != 0, \"ExampleSwapToPrice: ZERO_PRICE\");\n        // caller can specify 0 for either if they wish to swap in only one direction, but not both\n        require(maxSpendTokenA != 0 || maxSpendTokenB != 0, \"ExampleSwapToPrice: ZERO_SPEND\");\n\n        bool aToB;\n        uint256 amountIn;\n        {\n            (uint256 reserveA, uint256 reserveB) = UniswapV2Library.getReserves(factory, tokens.tokenA, tokens.tokenB);\n            (aToB, amountIn) = UniswapV2LiquidityMathLibrary.computeProfitMaximizingTrade(\n                truepricetokens.truepricetokenA, truepricetokens.truepricetokenB,\n                reserveA, reserveB\n            );\n        }\n\n        require(amountIn > 0, 'ExampleSwapToPrice: ZERO_AMOUNT_IN');\n\n        // spend up to the allowance of the token in\n        uint256 maxSpend = aToB ? maxSpendTokenA : maxSpendTokenB;\n        if (amountIn > maxSpend) {\n            amountIn = maxSpend;\n        }\n\n        address tokenIn = aToB ? tokens.tokenA : tokens.tokenB;\n        address tokenOut = aToB ? tokens.tokenB : tokens.tokenA;\n        TransferHelper.safeTransferFrom(tokenIn, msg.sender, address(this), amountIn);\n        TransferHelper.safeApprove(tokenIn, address(router), amountIn);\n\n        address[] memory path = new address[](2);\n        path[0] = tokenIn;\n        path[1] = tokenOut;\n\n        router.swapExactTokensForTokens(\n            amountIn,\n            0, // amountOutMin: we can skip computing this number because the math is tested\n            path,\n            to,\n            deadline\n        );\n    }\n    \n    function uniswapV2Call(address _sender, uint _amount0, uint _amount1, bytes calldata _data) external {\n      address[] memory path = new address[](2);\n      (uint amountRequired, uint deadline) = abi.decode(_data, (uint, uint));\n      if (_amount0 == 0) {\n        uint amountEntryToken =_amount1;\n        address token0 = IUniswapV2Pair(msg.sender).token0();\n        address token1 = IUniswapV2Pair(msg.sender).token1();\n        IERC20 entryToken = IERC20(token1);\n        IERC20 exitToken = IERC20(token0);\n        entryToken.approve(address(router), amountEntryToken);  \n        path[0] = token1; \n        path[1] = token0;\n        uint amountReceived = router.swapExactTokensForTokens(amountEntryToken, 0, path, address(this), deadline)[1];\n        exitToken.transfer(msg.sender, amountRequired);      \n        exitToken.transfer(_sender, amountReceived-amountRequired);   \n      } else {\n        uint amountEntryToken = _amount0;\n        address token0 = IUniswapV2Pair(msg.sender).token0();\n        address token1 = IUniswapV2Pair(msg.sender).token1();\n        IERC20 entryToken = IERC20(token0);\n        IERC20 exitToken = IERC20(token1);\n        entryToken.approve(address(router), amountEntryToken);\n        path[0] = token0;\n        path[1] = token1;\n        uint amountReceived = router.swapExactTokensForTokens(amountEntryToken, 0, path, address(this), deadline)[1];\n        exitToken.transfer(msg.sender, amountRequired);\n        exitToken.transfer(_sender, amountReceived-amountRequired);   \n      }\n  }\n}",
  "sourcePath": "C:/Users/SOJITRA/Desktop/Block_Chain/c-a-b/src/contracts/Swaptokens.sol",
  "compiler": {
    "name": "solc",
    "version": "0.6.6+commit.6c089d02.Emscripten.clang"
  },
  "schemaVersion": "3.4.1",
  "updatedAt": "2021-07-05T20:19:38.723Z",
  "devdoc": {
    "methods": {}
  },
  "userdoc": {
    "methods": {}
  }
}