{
  "contractName": "FlashLoanTemplate",
  "abi": [
    {
      "inputs": [
        {
          "internalType": "address",
          "name": "_uniswap",
          "type": "address"
        },
        {
          "internalType": "address",
          "name": "_uniswapFactory",
          "type": "address"
        },
        {
          "internalType": "address",
          "name": "_uniswapOracle",
          "type": "address"
        }
      ],
      "stateMutability": "nonpayable",
      "type": "constructor"
    },
    {
      "inputs": [],
      "name": "soloMargin",
      "outputs": [
        {
          "internalType": "contract ISoloMargin",
          "name": "",
          "type": "address"
        }
      ],
      "stateMutability": "view",
      "type": "function"
    },
    {
      "inputs": [
        {
          "internalType": "uint256",
          "name": "loanAmount",
          "type": "uint256"
        },
        {
          "internalType": "address",
          "name": "tokenA",
          "type": "address"
        },
        {
          "internalType": "address",
          "name": "tokenB",
          "type": "address"
        },
        {
          "internalType": "address",
          "name": "tokenC",
          "type": "address"
        }
      ],
      "name": "flashLoan",
      "outputs": [],
      "stateMutability": "nonpayable",
      "type": "function"
    },
    {
      "inputs": [
        {
          "internalType": "address",
          "name": "sender",
          "type": "address"
        },
        {
          "components": [
            {
              "internalType": "address",
              "name": "owner",
              "type": "address"
            },
            {
              "internalType": "uint256",
              "name": "number",
              "type": "uint256"
            }
          ],
          "internalType": "struct Account.Info",
          "name": "accountInfo",
          "type": "tuple"
        },
        {
          "internalType": "bytes",
          "name": "data",
          "type": "bytes"
        }
      ],
      "name": "callFunction",
      "outputs": [],
      "stateMutability": "nonpayable",
      "type": "function"
    },
    {
      "inputs": [
        {
          "internalType": "address",
          "name": "token",
          "type": "address"
        }
      ],
      "name": "_getMarketIdFromTokenAddress",
      "outputs": [
        {
          "internalType": "uint256",
          "name": "",
          "type": "uint256"
        }
      ],
      "stateMutability": "view",
      "type": "function"
    }
  ],
  "bytecode": "0x6080604052731e0447b19bb6ecfdae1e4ae1694b0c3659614e4e6000806101000a81548173ffffffffffffffffffffffffffffffffffffffff021916908373ffffffffffffffffffffffffffffffffffffffff1602179055506000809054906101000a900473ffffffffffffffffffffffffffffffffffffffff16600160006101000a81548173ffffffffffffffffffffffffffffffffffffffff021916908373ffffffffffffffffffffffffffffffffffffffff160217905550348015620000c757600080fd5b5060405162001ec238038062001ec28339818101604052810190620000ed9190620001d0565b82600260006101000a81548173ffffffffffffffffffffffffffffffffffffffff021916908373ffffffffffffffffffffffffffffffffffffffff16021790555081600360006101000a81548173ffffffffffffffffffffffffffffffffffffffff021916908373ffffffffffffffffffffffffffffffffffffffff16021790555080600460006101000a81548173ffffffffffffffffffffffffffffffffffffffff021916908373ffffffffffffffffffffffffffffffffffffffff16021790555050505062000274565b600081519050620001ca816200025a565b92915050565b600080600060608486031215620001e657600080fd5b6000620001f686828701620001b9565b93505060206200020986828701620001b9565b92505060406200021c86828701620001b9565b9150509250925092565b600062000233826200023a565b9050919050565b600073ffffffffffffffffffffffffffffffffffffffff82169050919050565b620002658162000226565b81146200027157600080fd5b50565b611c3e80620002846000396000f3fe608060405234801561001057600080fd5b506004361061004c5760003560e01c8063134f6d3a146100515780638b4187131461006f578063924e69be1461008b578063a8256039146100a7575b600080fd5b6100596100d7565b604051610066919061187f565b60405180910390f35b6100896004803603810190610084919061113d565b6100fd565b005b6100a560048036038101906100a091906111fb565b610836565b005b6100c160048036038101906100bc9190611074565b610c2d565b6040516100ce919061193e565b60405180910390f35b600160009054906101000a900473ffffffffffffffffffffffffffffffffffffffff1681565b610105610e1c565b61010d610e7f565b6000806000806000888881019061012491906110c6565b9450945094509450945082876000019073ffffffffffffffffffffffffffffffffffffffff16908173ffffffffffffffffffffffffffffffffffffffff168152505081876020019073ffffffffffffffffffffffffffffffffffffffff16908173ffffffffffffffffffffffffffffffffffffffff168152505080876040019073ffffffffffffffffffffffffffffffffffffffff16908173ffffffffffffffffffffffffffffffffffffffff16815250506000876000015190506000886020015190506000848a6020019073ffffffffffffffffffffffffffffffffffffffff16908173ffffffffffffffffffffffffffffffffffffffff1681525090508273ffffffffffffffffffffffffffffffffffffffff1663095ea7b3600160009054906101000a900473ffffffffffffffffffffffffffffffffffffffff167fffffffffffffffffffffffffffffffffffffffffffffffffffffffffffffffff6040518363ffffffff1660e01b81526004016102a09291906117d5565b602060405180830381600087803b1580156102ba57600080fd5b505af11580156102ce573d6000803e3d6000fd5b505050506040513d601f19601f820116820180604052508101906102f291906111a9565b506000600360009054906101000a900473ffffffffffffffffffffffffffffffffffffffff1673ffffffffffffffffffffffffffffffffffffffff1663e6a4390588886040518363ffffffff1660e01b81526004016103529291906117ac565b60206040518083038186803b15801561036a57600080fd5b505afa15801561037e573d6000803e3d6000fd5b505050506040513d601f19601f820116820180604052508101906103a2919061109d565b9050600073__UniswapV2OracleLibrary________________633f14dccd836040518263ffffffff1660e01b81526004016103dd919061173e565b60606040518083038186803b1580156103f557600080fd5b505af4158015610409573d6000803e3d6000fd5b505050506040513d601f19601f8201168201806040525081019061042d919061125e565b8d6000018e6020018295508381525083815250505050600260009054906101000a900473ffffffffffffffffffffffffffffffffffffffff1673ffffffffffffffffffffffffffffffffffffffff16632e05c4b78d8d8c600030600a6040518763ffffffff1660e01b81526004016104aa969594939291906118da565b600060405180830381600087803b1580156104c457600080fd5b505af11580156104d8573d6000803e3d6000fd5b50505050600260009054906101000a900473ffffffffffffffffffffffffffffffffffffffff1673ffffffffffffffffffffffffffffffffffffffff166310d1e85c308673ffffffffffffffffffffffffffffffffffffffff166370a08231306040518263ffffffff1660e01b81526004016105549190611723565b60206040518083038186803b15801561056c57600080fd5b505afa158015610580573d6000803e3d6000fd5b505050506040513d601f19601f820116820180604052508101906105a491906111d2565b60006040518463ffffffff1660e01b81526004016105c4939291906117fe565b600060405180830381600087803b1580156105de57600080fd5b505af11580156105f2573d6000803e3d6000fd5b50505050600260009054906101000a900473ffffffffffffffffffffffffffffffffffffffff1673ffffffffffffffffffffffffffffffffffffffff166310d1e85c308573ffffffffffffffffffffffffffffffffffffffff166370a08231306040518263ffffffff1660e01b815260040161066e9190611723565b60206040518083038186803b15801561068657600080fd5b505afa15801561069a573d6000803e3d6000fd5b505050506040513d601f19601f820116820180604052508101906106be91906111d2565b60006040518463ffffffff1660e01b81526004016106de939291906117fe565b600060405180830381600087803b1580156106f857600080fd5b505af115801561070c573d6000803e3d6000fd5b50505050600289018573ffffffffffffffffffffffffffffffffffffffff166370a08231306040518263ffffffff1660e01b815260040161074d9190611723565b60206040518083038186803b15801561076557600080fd5b505afa158015610779573d6000803e3d6000fd5b505050506040513d601f19601f8201168201806040525081019061079d91906111d2565b116107dd576040517f08c379a00000000000000000000000000000000000000000000000000000000081526004016107d4906118ba565b60405180910390fd5b8973ffffffffffffffffffffffffffffffffffffffff166108fc479081150290604051600060405180830381858888f19350505050158015610823573d6000803e3d6000fd5b5050505050505050505050505050505050565b600061084184610c2d565b90506060600367ffffffffffffffff8111801561085d57600080fd5b5060405190808252806020026020018201604052801561089757816020015b610884610ea0565b81526020019060019003908161087c5790505b509050604051806101000160405280600160088111156108b357fe5b8152602001600081526020016040518060800160405280600015158152602001600060018111156108e057fe5b8152602001600060018111156108f257fe5b8152602001898152508152602001838152602001600081526020013073ffffffffffffffffffffffffffffffffffffffff16815260200160008152602001604051806020016040528060008152508152508160008151811061095057fe5b602002602001018190525060405180610100016040528060088081111561097357fe5b8152602001600081526020016040518060800160405280600015158152602001600060018111156109a057fe5b8152602001600060018111156109b257fe5b81526020016000815250815260200160008152602001600081526020013073ffffffffffffffffffffffffffffffffffffffff168152602001600081526020013388888888604051602001610a0b959493929190611759565b60405160208183030381529060405281525081600181518110610a2a57fe5b602002602001018190525060405180610100016040528060006008811115610a4e57fe5b815260200160008152602001604051806080016040528060011515815260200160006001811115610a7b57fe5b815260200160006001811115610a8d57fe5b815260200160028a01815250815260200160008152602001600081526020013073ffffffffffffffffffffffffffffffffffffffff168152602001600081526020016040518060200160405280600081525081525081600281518110610aef57fe5b60200260200101819052506060600167ffffffffffffffff81118015610b1457600080fd5b50604051908082528060200260200182016040528015610b4e57816020015b610b3b610f0c565b815260200190600190039081610b335790505b50905060405180604001604052803073ffffffffffffffffffffffffffffffffffffffff168152602001600181525081600081518110610b8a57fe5b6020026020010181905250600160009054906101000a900473ffffffffffffffffffffffffffffffffffffffff1673ffffffffffffffffffffffffffffffffffffffff1663a67a6a4582846040518363ffffffff1660e01b8152600401610bf2929190611848565b600060405180830381600087803b158015610c0c57600080fd5b505af1158015610c20573d6000803e3d6000fd5b5050505050505050505050565b600080600160009054906101000a900473ffffffffffffffffffffffffffffffffffffffff1673ffffffffffffffffffffffffffffffffffffffff1663295c39a56040518163ffffffff1660e01b815260040160206040518083038186803b158015610c9857600080fd5b505afa158015610cac573d6000803e3d6000fd5b505050506040513d601f19601f82011682018060405250810190610cd091906111d2565b9050600080600090505b82811015610ddb57600160009054906101000a900473ffffffffffffffffffffffffffffffffffffffff1673ffffffffffffffffffffffffffffffffffffffff1663062bd3e9826040518263ffffffff1660e01b8152600401610d3d919061193e565b60206040518083038186803b158015610d5557600080fd5b505afa158015610d69573d6000803e3d6000fd5b505050506040513d601f19601f82011682018060405250810190610d8d919061109d565b91508473ffffffffffffffffffffffffffffffffffffffff168273ffffffffffffffffffffffffffffffffffffffff161415610dce57809350505050610e17565b8080600101915050610cda565b506040517f08c379a0000000000000000000000000000000000000000000000000000000008152600401610e0e9061189a565b60405180910390fd5b919050565b6040518060600160405280600073ffffffffffffffffffffffffffffffffffffffff168152602001600073ffffffffffffffffffffffffffffffffffffffff168152602001600073ffffffffffffffffffffffffffffffffffffffff1681525090565b60405180606001604052806000815260200160008152602001600081525090565b60405180610100016040528060006008811115610eb957fe5b815260200160008152602001610ecd610f3c565b81526020016000815260200160008152602001600073ffffffffffffffffffffffffffffffffffffffff16815260200160008152602001606081525090565b6040518060400160405280600073ffffffffffffffffffffffffffffffffffffffff168152602001600081525090565b604051806080016040528060001515815260200160006001811115610f5d57fe5b815260200160006001811115610f6f57fe5b8152602001600081525090565b600081359050610f8b81611b95565b92915050565b600081519050610fa081611b95565b92915050565b600081359050610fb581611bac565b92915050565b600081519050610fca81611bc3565b92915050565b60008083601f840112610fe257600080fd5b8235905067ffffffffffffffff811115610ffb57600080fd5b60208301915083600182028301111561101357600080fd5b9250929050565b60006040828403121561102c57600080fd5b81905092915050565b60008135905061104481611bda565b92915050565b60008151905061105981611bda565b92915050565b60008151905061106e81611bf1565b92915050565b60006020828403121561108657600080fd5b600061109484828501610f7c565b91505092915050565b6000602082840312156110af57600080fd5b60006110bd84828501610f91565b91505092915050565b600080600080600060a086880312156110de57600080fd5b60006110ec88828901610fa6565b95505060206110fd88828901611035565b945050604061110e88828901610fa6565b935050606061111f88828901610fa6565b925050608061113088828901610fa6565b9150509295509295909350565b6000806000806080858703121561115357600080fd5b600061116187828801610f7c565b94505060206111728782880161101a565b935050606085013567ffffffffffffffff81111561118f57600080fd5b61119b87828801610fd0565b925092505092959194509250565b6000602082840312156111bb57600080fd5b60006111c984828501610fbb565b91505092915050565b6000602082840312156111e457600080fd5b60006111f28482850161104a565b91505092915050565b6000806000806080858703121561121157600080fd5b600061121f87828801611035565b945050602061123087828801610f7c565b935050604061124187828801610f7c565b925050606061125287828801610f7c565b91505092959194509250565b60008060006060848603121561127357600080fd5b60006112818682870161104a565b93505060206112928682870161104a565b92505060406112a38682870161105f565b9150509250925092565b60006112b9838361154a565b905092915050565b60006112cd8383611652565b60408301905092915050565b6112e281611a1b565b82525050565b6112f181611a09565b82525050565b61130081611a09565b82525050565b61130f81611a09565b82525050565b600061132082611979565b61132a81856119b4565b93508360208202850161133c85611959565b8060005b85811015611378578484038952815161135985826112ad565b94506113648361199a565b925060208a01995050600181019050611340565b50829750879550505050505092915050565b600061139582611984565b61139f81856119c5565b93506113aa83611969565b8060005b838110156113db5781516113c288826112c1565b97506113cd836119a7565b9250506001810190506113ae565b5085935050505092915050565b6113f181611a2d565b82525050565b60006114028261198f565b61140c81856119d6565b935061141c818560208601611b2a565b61142581611b5d565b840191505092915050565b61143981611aac565b82525050565b61144881611ad0565b82525050565b61145781611ae2565b82525050565b61146681611af4565b82525050565b61147581611b06565b82525050565b61148481611b18565b82525050565b60006114976024836119f8565b91507f4e6f206d61726b6574496420666f756e6420666f722070726f7669646564207460008301527f6f6b656e000000000000000000000000000000000000000000000000000000006020830152604082019050919050565b60006114fd6011836119f8565b91507f43414e4e4f54205245504159204c4f414e0000000000000000000000000000006000830152602082019050919050565b600061153d6000836119e7565b9150600082019050919050565b600061016083016000830151611563600086018261143f565b5060208301516115766020860182611705565b50604083015161158960408601826115fd565b50606083015161159c60c0860182611705565b5060808301516115af60e0860182611705565b5060a08301516115c36101008601826112e8565b5060c08301516115d7610120860182611705565b5060e08301518482036101408601526115f082826113f7565b9150508091505092915050565b60808201600082015161161360008501826113e8565b506020820151611626602085018261144e565b506040820151611639604085018261145d565b50606082015161164c6060850182611705565b50505050565b60408201600082015161166860008501826112e8565b50602082015161167b6020850182611705565b50505050565b60608201600082015161169760008501826112e8565b5060208201516116aa60208501826112e8565b5060408201516116bd60408501826112e8565b50505050565b6060820160008201516116d96000850182611705565b5060208201516116ec6020850182611705565b5060408201516116ff6040850182611705565b50505050565b61170e81611a92565b82525050565b61171d81611a92565b82525050565b600060208201905061173860008301846112f7565b92915050565b60006020820190506117536000830184611306565b92915050565b600060a08201905061176e60008301886112d9565b61177b6020830187611714565b61178860408301866112f7565b61179560608301856112f7565b6117a260808301846112f7565b9695505050505050565b60006040820190506117c160008301856112f7565b6117ce60208301846112f7565b9392505050565b60006040820190506117ea60008301856112f7565b6117f76020830184611714565b9392505050565b600060808201905061181360008301866112f7565b6118206020830185611714565b61182d604083018461146c565b818103606083015261183e81611530565b9050949350505050565b60006040820190508181036000830152611862818561138a565b905081810360208301526118768184611315565b90509392505050565b60006020820190506118946000830184611430565b92915050565b600060208201905081810360008301526118b38161148a565b9050919050565b600060208201905081810360008301526118d3816114f0565b9050919050565b6000610140820190506118f06000830189611681565b6118fd60608301886116c3565b61190a60c0830187611714565b61191760e083018661146c565b6119256101008301856112f7565b61193361012083018461147b565b979650505050505050565b60006020820190506119536000830184611714565b92915050565b6000819050602082019050919050565b6000819050602082019050919050565b600081519050919050565b600081519050919050565b600081519050919050565b6000602082019050919050565b6000602082019050919050565b600082825260208201905092915050565b600082825260208201905092915050565b600082825260208201905092915050565b600082825260208201905092915050565b600082825260208201905092915050565b6000611a1482611a72565b9050919050565b6000611a2682611a72565b9050919050565b60008115159050919050565b6000819050611a4782611b6e565b919050565b6000819050611a5a82611b7b565b919050565b6000819050611a6d82611b88565b919050565b600073ffffffffffffffffffffffffffffffffffffffff82169050919050565b6000819050919050565b600063ffffffff82169050919050565b6000611ab782611abe565b9050919050565b6000611ac982611a72565b9050919050565b6000611adb82611a39565b9050919050565b6000611aed82611a4c565b9050919050565b6000611aff82611a5f565b9050919050565b6000611b1182611a92565b9050919050565b6000611b2382611a92565b9050919050565b60005b83811015611b48578082015181840152602081019050611b2d565b83811115611b57576000848401525b50505050565b6000601f19601f8301169050919050565b60098110611b7857fe5b50565b60028110611b8557fe5b50565b60028110611b9257fe5b50565b611b9e81611a09565b8114611ba957600080fd5b50565b611bb581611a1b565b8114611bc057600080fd5b50565b611bcc81611a2d565b8114611bd757600080fd5b50565b611be381611a92565b8114611bee57600080fd5b50565b611bfa81611a9c565b8114611c0557600080fd5b5056fea264697066735822122029245df965938728f2295dad8cf7befb1022002268749ace679da2f014e42ace64736f6c63430006060033",
  "immutableReferences": {},
  "source": "// SPDX-License-Identifier: AGPL-3.0-or-later\n\n// The ABI encoder is necessary, but older Solidity versions should work\npragma solidity >=0.6.6;\npragma experimental ABIEncoderV2;\n\nimport \"./Swaptokens.sol\";\nimport {UniswapV2OracleLibrary} from \"./uniswaporacle.sol\";\n\n// These definitions are taken from across multiple dydx contracts, and are\n// limited to just the bare minimum necessary to make flash loans work.\nstruct Tokens{\n            address tokenA;\n            address tokenB;\n            address tokenC;\n        }\nstruct truepriceTokens{\n            uint256 truepricetokenA;\n            uint256 truepricetokenB;\n            uint256 truepricetokenC;\n        }\nlibrary Types {\n    enum AssetDenomination { Wei, Par }\n    enum AssetReference { Delta, Target }\n    struct AssetAmount {\n        bool sign;\n        AssetDenomination denomination;\n        AssetReference ref;\n        uint256 value;\n    }\n}\n\nlibrary Account {\n    struct Info {\n        address owner;\n        uint256 number;\n    }\n}\n\nlibrary Actions {\n    enum ActionType {\n        Deposit, Withdraw, Transfer, Buy, Sell, Trade, Liquidate, Vaporize, Call\n    }\n    struct ActionArgs {\n        ActionType actionType;\n        uint256 accountId;\n        Types.AssetAmount amount;\n        uint256 primaryMarketId;\n        uint256 secondaryMarketId;\n        address otherAddress;\n        uint256 otherAccountId;\n        bytes data;\n    }\n}\n\ninterface ISoloMargin {\n    function operate(Account.Info[] calldata accounts, Actions.ActionArgs[] calldata actions) external;\n    function getNumMarkets() external view returns (uint256);\n     function getMarketTokenAddress(uint256 marketId)\n        external\n        view\n        returns (address);\n\n}\n\n// The interface for a contract to be callable after receiving a flash loan\ninterface ICallee {\n    function callFunction(address sender, Account.Info calldata accountInfo, bytes calldata data) external;\n}\n\ninterface UniswapV2Factory\n{\n    function getPair(address tokenA, address tokenB) external view returns (address pair);\n}\n\ninterface Swaptokens\n{\n    \n     function swapToPrice(\n        Tokens calldata tokens,\n        truepriceTokens calldata trupricetokens,\n        uint256 maxSpendTokenA,\n        uint256 maxSpendTokenB,\n        address to,\n        uint256 deadline\n    ) external; \n    \n      function uniswapV2Call(address _sender, uint _amount0, uint _amount1, bytes calldata _data) external;\n    \n}\n\ninterface UniswapOracle\n{\n     function currentCumulativePrices(\n        address pair\n    ) external view returns (uint price0Cumulative, uint price1Cumulative, uint32 blockTimestamp);\n}\n\n\ncontract FlashLoanTemplate is ICallee {\n    // The dydx Solo Margin contract, as can be found here:\n    // https://github.com/dydxprotocol/solo/blob/master/migrations/deployed.json\n \n    address _solo = 0x1E0447b19BB6EcFdAe1e4AE1694b0C3659614e4e;\n    ISoloMargin public soloMargin = ISoloMargin(_solo);\n    Swaptokens uniswaparb;\n    UniswapV2Factory uniswapFactory;\n    UniswapOracle oracle;\n\n    constructor(address _uniswap, address _uniswapFactory, address _uniswapOracle) public {\n        uniswaparb = Swaptokens(_uniswap);\n        uniswapFactory = UniswapV2Factory(_uniswapFactory);\n        oracle = UniswapOracle(_uniswapOracle);\n    }\n    \n    // This is the function we call\n    function flashLoan(uint loanAmount, address tokenA,\n    address tokenB,\n    address tokenC) external {\n               \n        uint256 marketId = _getMarketIdFromTokenAddress(tokenA);\n\n        Actions.ActionArgs[] memory operations = new Actions.ActionArgs[](3);\n\n        operations[0] = Actions.ActionArgs({\n            actionType: Actions.ActionType.Withdraw,\n            accountId: 0,\n            amount: Types.AssetAmount({\n                sign: false,\n                denomination: Types.AssetDenomination.Wei,\n                ref: Types.AssetReference.Delta,\n                value: loanAmount // Amount to borrow\n            }),\n            primaryMarketId: marketId,\n            secondaryMarketId: 0,\n            otherAddress: address(this),\n            otherAccountId: 0,\n            data: \"\"\n        });\n        \n        operations[1] = Actions.ActionArgs({\n                actionType: Actions.ActionType.Call,\n                accountId: 0,\n                amount: Types.AssetAmount({\n                    sign: false,\n                    denomination: Types.AssetDenomination.Wei,\n                    ref: Types.AssetReference.Delta,\n                    value: 0\n                }),\n                primaryMarketId: 0,\n                secondaryMarketId: 0,\n                otherAddress: address(this),\n                otherAccountId: 0,\n                data: abi.encode(\n                    msg.sender,\n                    loanAmount,\n                    tokenA,\n                    tokenB,\n                    tokenC\n                )\n            });\n        \n        operations[2] = Actions.ActionArgs({\n            actionType: Actions.ActionType.Deposit,\n            accountId: 0,\n            amount: Types.AssetAmount({\n                sign: true,\n                denomination: Types.AssetDenomination.Wei,\n                ref: Types.AssetReference.Delta,\n                value: loanAmount + 2 // Repayment amount with 2 wei fee\n            }),\n            primaryMarketId: 0, // WETH\n            secondaryMarketId: 0,\n            otherAddress: address(this),\n            otherAccountId: 0,\n            data: \"\"\n        });\n\n        Account.Info[] memory accountInfos = new Account.Info[](1);\n        accountInfos[0] = Account.Info({owner: address(this), number: 1});\n\n        soloMargin.operate(accountInfos, operations);\n    }\n    \n    // This is the function called by dydx after giving us the loan\n    function callFunction(address sender, Account.Info calldata accountInfo, bytes calldata data) external override{\n        // Decode the passed variables from the data object\n        Tokens memory tokens;\n        truepriceTokens memory truepricetokens;\n        (\n            // This must match the variables defined in the Call object above\n            address payable actualSender,\n            uint loanAmount,\n            address tokenA,\n            address tokenB,\n            address tokenC\n        ) = abi.decode(data, (\n            address, uint, address, address, address\n        ));\n        tokens.tokenA = tokenA;  tokens.tokenB = tokenB; tokens.tokenC = tokenC;\n        IERC20 tokena = IERC20(tokens.tokenA);\n        IERC20 tokenb = IERC20(tokens.tokenB);\n        IERC20 tokenc = IERC20(tokens.tokenB = tokenB);\n        \n    \n        // Give infinite approval to dydx to withdraw ERC20 on contract deployment,\n        // so we don't have to approve the loan repayment amount (+2 wei) on each call.\n        // The approval is used by the dydx contract to pay the loan back to itself.\n        tokena.approve(address(soloMargin), uint(-1));\n        \n        address pairAB = uniswapFactory.getPair(tokenA, tokenB);\n        uint32 blockTimestamp;\n        //the naive smart contract simply looks up the current price and executes the trade, it is vulnerable to front-running and will likely suffer an economic loss. \n        //For this we use \"true\" price\n        (truepricetokens.truepricetokenA, truepricetokens.truepricetokenB,blockTimestamp) = UniswapV2OracleLibrary.currentCumulativePrices(pairAB);\n            \n        \n        \n        //A->B\n        uniswaparb.swapToPrice(\n        tokens,\n        truepricetokens,\n        loanAmount,\n        0,\n        address(this),\n        10\n        );\n        \n        //From token swap of B to C and C to A, we need to swap all tokens otherwise there will be unsused tokens. \n        //B->C        \n        uniswaparb.uniswapV2Call(address(this),tokenb.balanceOf(address(this)), 0, \"\");\n        \n        //C->A\n        uniswaparb.uniswapV2Call(address(this),tokenc.balanceOf(address(this)), 0, \"\");\n\n        \n        // // the loan can't be paid\n        require(tokena.balanceOf(address(this)) > loanAmount + 2, \"CANNOT REPAY LOAN\");\n        actualSender.transfer(address(this).balance);\n    }\n    \n    function _getMarketIdFromTokenAddress(address token)\n        public\n        view\n        returns (uint256)\n    {\n     \n        uint256 numMarkets = soloMargin.getNumMarkets();\n\n        address curToken;\n        for (uint256 i = 0; i < numMarkets; i++) {\n            curToken = soloMargin.getMarketTokenAddress(i);\n\n            if (curToken == token) {\n                return i;\n            }\n        }\n\n        revert(\"No marketId found for provided token\");\n    }\n    \n    \n\n}",
  "sourcePath": "C:/Users/SOJITRA/Desktop/Block_Chain/c-a-b/src/contracts/DydxFlashLoan.sol",
  "compiler": {
    "name": "solc",
    "version": "0.6.6+commit.6c089d02.Emscripten.clang"
  },
  "schemaVersion": "3.4.1",
  "updatedAt": "2021-07-05T16:47:37.648Z",
  "devdoc": {
    "methods": {}
  },
  "userdoc": {
    "methods": {}
  }
}