{
  "contractName": "TransferHelperTestFakeFallback",
  "abi": [
    {
      "inputs": [],
      "name": "shouldRevert",
      "outputs": [
        {
          "internalType": "bool",
          "name": "",
          "type": "bool"
        }
      ],
      "stateMutability": "view",
      "type": "function"
    },
    {
      "stateMutability": "payable",
      "type": "receive"
    },
    {
      "inputs": [
        {
          "internalType": "bool",
          "name": "shouldRevert_",
          "type": "bool"
        }
      ],
      "name": "setup",
      "outputs": [],
      "stateMutability": "nonpayable",
      "type": "function"
    },
    {
      "inputs": [],
      "name": "withdraw",
      "outputs": [],
      "stateMutability": "nonpayable",
      "type": "function"
    }
  ],
  "bytecode": "0x608060405234801561001057600080fd5b5061018d806100206000396000f3fe6080604052600436106100385760003560e01c80633ccfd60b1461005d578063d3072d8214610074578063e2c169ec146100a357610058565b36610058576000809054906101000a900460ff161561005657600080fd5b005b600080fd5b34801561006957600080fd5b506100726100e0565b005b34801561008057600080fd5b50610089610129565b604051808215151515815260200191505060405180910390f35b3480156100af57600080fd5b506100de600480360360208110156100c657600080fd5b8101908080351515906020019092919050505061013b565b005b3373ffffffffffffffffffffffffffffffffffffffff166108fc479081150290604051600060405180830381858888f19350505050158015610126573d6000803e3d6000fd5b50565b6000809054906101000a900460ff1681565b806000806101000a81548160ff0219169083151502179055505056fea26469706673582212201e2a732bca554e8218603f34bc96abd6ce551ad16f93cf6c4674b6c23c91b20264736f6c63430006060033",
  "immutableReferences": {},
  "source": "// SPDX-License-Identifier: GPL-3.0-or-later\r\n\r\npragma solidity >=0.6.0;\r\n\r\nimport './TransferHelper.sol';\r\n\r\n// test helper for transfers\r\ncontract TransferHelperTest {\r\n    function safeApprove(\r\n        address token,\r\n        address to,\r\n        uint256 value\r\n    ) external {\r\n        TransferHelper.safeApprove(token, to, value);\r\n    }\r\n\r\n    function safeTransfer(\r\n        address token,\r\n        address to,\r\n        uint256 value\r\n    ) external {\r\n        TransferHelper.safeTransfer(token, to, value);\r\n    }\r\n\r\n    function safeTransferFrom(\r\n        address token,\r\n        address from,\r\n        address to,\r\n        uint256 value\r\n    ) external {\r\n        TransferHelper.safeTransferFrom(token, from, to, value);\r\n    }\r\n\r\n    function safeTransferETH(address to, uint256 value) external {\r\n        TransferHelper.safeTransferETH(to, value);\r\n    }\r\n}\r\n\r\n// can revert on failure and returns true if successful\r\ncontract TransferHelperTestFakeERC20Compliant {\r\n    bool public success;\r\n    bool public shouldRevert;\r\n\r\n    function setup(bool success_, bool shouldRevert_) external {\r\n        success = success_;\r\n        shouldRevert = shouldRevert_;\r\n    }\r\n\r\n    function transfer(address, uint256) external view returns (bool) {\r\n        require(!shouldRevert, 'REVERT');\r\n        return success;\r\n    }\r\n\r\n    function transferFrom(\r\n        address,\r\n        address,\r\n        uint256\r\n    ) external view returns (bool) {\r\n        require(!shouldRevert, 'REVERT');\r\n        return success;\r\n    }\r\n\r\n    function approve(address, uint256) external view returns (bool) {\r\n        require(!shouldRevert, 'REVERT');\r\n        return success;\r\n    }\r\n}\r\n\r\n// only reverts on failure, no return value\r\ncontract TransferHelperTestFakeERC20Noncompliant {\r\n    bool public shouldRevert;\r\n\r\n    function setup(bool shouldRevert_) external {\r\n        shouldRevert = shouldRevert_;\r\n    }\r\n\r\n    function transfer(address, uint256) external view {\r\n        require(!shouldRevert);\r\n    }\r\n\r\n    function transferFrom(\r\n        address,\r\n        address,\r\n        uint256\r\n    ) external view {\r\n        require(!shouldRevert);\r\n    }\r\n\r\n    function approve(address, uint256) external view {\r\n        require(!shouldRevert);\r\n    }\r\n}\r\n\r\ncontract TransferHelperTestFakeFallback {\r\n    bool public shouldRevert;\r\n\r\n    function setup(bool shouldRevert_) external {\r\n        shouldRevert = shouldRevert_;\r\n    }\r\n\r\n    receive() external payable {\r\n        require(!shouldRevert);\r\n    }\r\n\r\n    function withdraw() external {\r\n        msg.sender.transfer(address(this).balance);\r\n    }\r\n}",
  "sourcePath": "C:/Users/SOJITRA/Desktop/Block_Chain/c-a-b/src/contracts/TransferHelperTest.sol",
  "compiler": {
    "name": "solc",
    "version": "0.6.6+commit.6c089d02.Emscripten.clang"
  },
  "schemaVersion": "3.4.1",
  "updatedAt": "2021-07-05T20:19:38.758Z",
  "devdoc": {
    "methods": {}
  },
  "userdoc": {
    "methods": {}
  }
}