{
  "contractName": "UniswapV2OracleLibrary",
  "abi": [
    {
      "inputs": [
        {
          "internalType": "address",
          "name": "pair",
          "type": "address"
        }
      ],
      "name": "currentCumulativePrices",
      "outputs": [
        {
          "internalType": "uint256",
          "name": "price0Cumulative",
          "type": "uint256"
        },
        {
          "internalType": "uint256",
          "name": "price1Cumulative",
          "type": "uint256"
        },
        {
          "internalType": "uint32",
          "name": "blockTimestamp",
          "type": "uint32"
        }
      ],
      "stateMutability": "view",
      "type": "function"
    }
  ],
  "bytecode": "0x61088b610026600b82828239805160001a60731461001957fe5b30600052607381538281f3fe73000000000000000000000000000000000000000030146080604052600436106100355760003560e01c80633f14dccd1461003a575b600080fd5b61007c6004803603602081101561005057600080fd5b81019080803573ffffffffffffffffffffffffffffffffffffffff1690602001909291905050506100ac565b604051808481526020018381526020018263ffffffff1663ffffffff168152602001935050505060405180910390f35b60008060006100b9610337565b90508373ffffffffffffffffffffffffffffffffffffffff16635909c0d56040518163ffffffff1660e01b815260040160206040518083038186803b15801561010157600080fd5b505afa158015610115573d6000803e3d6000fd5b505050506040513d602081101561012b57600080fd5b810190808051906020019092919050505092508373ffffffffffffffffffffffffffffffffffffffff16635a3d54936040518163ffffffff1660e01b815260040160206040518083038186803b15801561018457600080fd5b505afa158015610198573d6000803e3d6000fd5b505050506040513d60208110156101ae57600080fd5b8101908080519060200190929190505050915060008060008673ffffffffffffffffffffffffffffffffffffffff16630902f1ac6040518163ffffffff1660e01b815260040160606040518083038186803b15801561020c57600080fd5b505afa158015610220573d6000803e3d6000fd5b505050506040513d606081101561023657600080fd5b810190808051906020019092919080519060200190929190805190602001909291905050509250925092508363ffffffff168163ffffffff161461032d57600081850390508063ffffffff166102ac846dffffffffffffffffffffffffffff16866dffffffffffffffffffffffffffff1661034d565b600001517bffffffffffffffffffffffffffffffffffffffffffffffffffffffff1602870196508063ffffffff16610304856dffffffffffffffffffffffffffff16856dffffffffffffffffffffffffffff1661034d565b600001517bffffffffffffffffffffffffffffffffffffffffffffffffffffffff160286019550505b5050509193909250565b6000640100000000428161034757fe5b06905090565b6103556107fe565b600082116103ae576040517f08c379a00000000000000000000000000000000000000000000000000000000081526004018080602001828103825260268152602001806108306026913960400191505060405180910390fd5b60008314156103ec57604051806020016040528060007bffffffffffffffffffffffffffffffffffffffffffffffffffffffff168152509050610628565b7fffffffffffffffffffffffffffffffffffffffffffffffffffffffffffffffff71ffffffffffffffffffffffffffffffffffff16831161052557600082607060ff1685901b8161043957fe5b0490507fffffffffffffffffffffffffffffffffffffffffffffffffffffffffffffffff7bffffffffffffffffffffffffffffffffffffffffffffffffffffffff168111156104f0576040517f08c379a000000000000000000000000000000000000000000000000000000000815260040180806020018281038252601e8152602001807f4669786564506f696e743a3a6672616374696f6e3a206f766572666c6f77000081525060200191505060405180910390fd5b6040518060200160405280827bffffffffffffffffffffffffffffffffffffffffffffffffffffffff16815250915050610628565b6000610541846e0100000000000000000000000000008561062e565b90507fffffffffffffffffffffffffffffffffffffffffffffffffffffffffffffffff7bffffffffffffffffffffffffffffffffffffffffffffffffffffffff168111156105f7576040517f08c379a000000000000000000000000000000000000000000000000000000000815260040180806020018281038252601e8152602001807f4669786564506f696e743a3a6672616374696f6e3a206f766572666c6f77000081525060200191505060405180910390fd5b6040518060200160405280827bffffffffffffffffffffffffffffffffffffffffffffffffffffffff168152509150505b92915050565b600080600061063d868661070e565b915091506000848061064b57fe5b86880990508281111561065f576001820391505b808303925060008214156106815784838161067657fe5b049350505050610707565b8482106106f6576040517f08c379a000000000000000000000000000000000000000000000000000000000815260040180806020018281038252601a8152602001807f46756c6c4d6174683a2046554c4c4449565f4f564552464c4f5700000000000081525060200191505060405180910390fd5b610701838387610761565b93505050505b9392505050565b60008060007fffffffffffffffffffffffffffffffffffffffffffffffffffffffffffffffff8061073b57fe5b84860990508385029250828103915082811015610759576001820391505b509250929050565b600080826000038316905080838161077557fe5b04925080858161078157fe5b049450600181826000038161079257fe5b04018402850194506000600190508084026002038102905080840260020381029050808402600203810290508084026002038102905080840260020381029050808402600203810290508084026002038102905080840260020381029050808602925050509392505050565b604051806020016040528060007bffffffffffffffffffffffffffffffffffffffffffffffffffffffff168152509056fe4669786564506f696e743a3a6672616374696f6e3a206469766973696f6e206279207a65726fa2646970667358221220c6e5a70dad76a151ccf474071402c55629aa84c17ba1800a311da26675c0a89a64736f6c63430006060033",
  "immutableReferences": {},
  "source": "// SPDX-License-Identifier: MIT\npragma solidity >=0.5.0;\n\nimport './IUniswapV2Pair.sol';\nimport './FixedPoint.sol';\n\n// library with helper methods for oracles that are concerned with computing average prices\nlibrary UniswapV2OracleLibrary {\n    using FixedPoint for *;\n\n    // helper function that returns the current block timestamp within the range of uint32, i.e. [0, 2**32 - 1]\n    function currentBlockTimestamp() internal view returns (uint32) {\n        return uint32(block.timestamp % 2 ** 32);\n    }\n\n    // produces the cumulative price using counterfactuals to save gas and avoid a call to sync.\n    function currentCumulativePrices(\n        address pair\n    ) external view returns (uint price0Cumulative, uint price1Cumulative, uint32 blockTimestamp) {\n        blockTimestamp = currentBlockTimestamp();\n        price0Cumulative = IUniswapV2Pair(pair).price0CumulativeLast();\n        price1Cumulative = IUniswapV2Pair(pair).price1CumulativeLast();\n\n        // if time has elapsed since the last update on the pair, mock the accumulated price values\n        (uint112 reserve0, uint112 reserve1, uint32 blockTimestampLast) = IUniswapV2Pair(pair).getReserves();\n        if (blockTimestampLast != blockTimestamp) {\n            // subtraction overflow is desired\n            uint32 timeElapsed = blockTimestamp - blockTimestampLast;\n            // addition overflow is desired\n            // counterfactual\n            price0Cumulative += uint(FixedPoint.fraction(reserve1, reserve0)._x) * timeElapsed;\n            // counterfactual\n            price1Cumulative += uint(FixedPoint.fraction(reserve0, reserve1)._x) * timeElapsed;\n        }\n    }\n}",
  "sourcePath": "C:/Users/SOJITRA/Desktop/Block_Chain/c-a-b/src/contracts/uniswaporacle.sol",
  "compiler": {
    "name": "solc",
    "version": "0.6.6+commit.6c089d02.Emscripten.clang"
  },
  "schemaVersion": "3.4.1",
  "updatedAt": "2021-07-05T20:19:38.813Z",
  "devdoc": {
    "methods": {}
  },
  "userdoc": {
    "methods": {}
  }
}